:020000041000EA
:1000000000B5324B212058609868022188439860DF
:10001000D860186158612E4B002199600221596106
:100020000121F02299502B49196001219960352056
:1000300000F044F80222904214D00621196600F024
:1000400034F8196E01211966002018661A6600F04E
:100050002CF8196E196E196E052000F02FF8012189
:100060000842F9D1002199601B49196000215960AB
:100070001A491B48016001219960EB211966A021F2
:10008000196600F012F800219960164914480160C1
:100090000121996001BC002800D000471248134993
:1000A000086003C880F30888084703B5996A0420EC
:1000B0000142FBD001200142F8D103BD02B5186610
:1000C0001866FFF7F2FF186E186E02BD00000240BE
:1000D000000000180000070000035F00212200005C
:1000E000F4000018222000A00001001008ED00E03C
:1000F00000000000000000000000000074B24E7A12
:1001000000200420F7010010C3010010C5010010F9
:10011000C1010010C1010010C1010010C101001097
:10012000C1010010C1010010C1010010C701001081
:10013000C1010010C1010010C9010010CB01001065
:10014000CD010010CD010010CD010010CD01001037
:10015000CD010010CD010010CD010010CD01001027
:10016000CD010010CD010010CD010010CD01001017
:10017000CD010010CD010010CD010010CD01001007
:10018000CD010010CD010010CD010010CD010010F7
:10019000CD010010CD010010CD010010CD010010E7
:1001A000CD010010CD010010CD010010CD010010D7
:1001B000CD010010CD010010CD010010CD010010C7
:1001C00000BE00BE00BE00BE00BE00BEEFF3058054
:1001D000103800BEF2EB8871E88705101088051012
:1001E0003402001090A31AE700201F49086006C8D7
:1001F00081F3088810471D48006800282FD10DA4FE
:100200000ECC002902D000F012F8F9E71849194A7B
:10021000002000E001C19142FCD1174988471749ED
:1002200088471749884700BEFDE701C901C29A42C5
:10023000FBD3704710880510C0000020E81800208C
:1002400038A00510000004200000042038A005108C
:10025000001004200010042000000000704709482E
:1002600000F0F8FF0047000008ED00E0000000D0BB
:1002700008190020F8E800205DCD0010CD06001020
:1002800019CD00105756000006005250ABB3605312
:10029000185D051006005250861C0302285D0510EB
:1002A000060052505422A29D2C5D051005005250AC
:1002B000DE65F46838A00510F8B5C04610B5064CE8
:1002C0002378002B07D1054B002B02D0044800E017
:1002D00000BF0123237010BD781A00200000000029
:1002E00060680110044B10B5002B03D0034904488B
:1002F00000E000BF10BDC046000000007C1A0020D6
:100300006068011010B5D0231B06802292019A610B
:100310008022D2029A610B4B01221A700A4B1B7881
:10032000002B04D1094A1360094A136010BD002153
:10033000064B19600748064A036814681B1B0360D4
:100340001160F3E7F5E80020E5E80020DC3000204C
:10035000D0300020D8300020D0231B06802292010C
:100360009A618022D2029A61034B01221A70034BD8
:100370001A68034B1A607047F6E80020D03000205E
:10038000D8300020D0231B065B681B0604D5054A25
:100390001368013313607047024A1368013B13600E
:1003A000F9E7C046D030002010B5D0231B065B68AB
:1003B0009B0508D40021002008F05CF8064A136869
:1003C0000133136010BD0121002008F053F8024AE8
:1003D0001368013B1360F5E7D430002010B5041E0C
:1003E00006D0012C07D0062C08D0082C09D010BD4F
:1003F000FFF788FFF5E7FFF7AFFFF4E7FFF7C2FF6E
:10040000F3E7FFF7D1FFF2E710B50D2001F09CF9FB
:100410000E2001F099F90F2001F096F9D02424065E
:1004200080239B0163628023DB01636280231B02C4
:100430006362122001F088F9112001F085F9102083
:1004400001F082F98023DB02636280239B026362F6
:1004500080235B02636210BD10B5012001F074F9C6
:10046000002001F071F9062001F06EF9072001F07B
:100470006BF9082001F068F9092001F065F9D02432
:1004800024060123A3620133A3620122002100207C
:1004900001F02EF801220021012001F029F840236B
:1004A000A3624033A36200220121062001F020F85C
:1004B00000220121072001F01BF880235B00A362CA
:1004C0000133FF33A36200220121082001F010F85C
:1004D00000220121092001F00BF80B4B0122082119
:1004E000002001F0D5F801220821012001F0C0F818
:1004F00001220421062001F0BBF80122042108207A
:1005000001F0B6F810BDC046DD03001010B516208E
:1005100001F01AF9152001F017F9D02424068023E0
:10052000DB03A36280239B03A362042001F00CF988
:10053000052001F009F91023A3621033A36210BD56
:10054000204B1B78002B27D11F4B1B78002B07D08B
:10055000D0231B065B689B0702D51B4B00221A7039
:10056000D0231B068022D2015A61802212029A6196
:10057000802292025A61802252029A61134B1A68B9
:10058000134B1B689A4208DAD0231B068022920183
:100590005A618022D2029A6170479A4208DDD023C4
:1005A0001B06802292019A618022D2025A61F3E7EF
:1005B000D0231B06802292015A618022D2025A6106
:1005C000EAE7C046F5E80020F6E80020D030002039
:1005D000D4300020204B1B78002B27D11F4B1B78D9
:1005E000002B07D0D0231B065B68DB0702D51B4B13
:1005F00000221A70D0231B068022D2019A61802229
:1006000012025A61802292029A61802252025A6139
:10061000134B1A68134B1B689A4208DDD0231B0644
:10062000802292015A618022D2029A6170479A42D6
:1006300008DAD0231B06802292019A618022D2021E
:100640005A61F3E7D0231B06802292015A6180226F
:10065000D2025A61EAE7C046F6E80020F5E8002039
:10066000D0300020D430002010B5134B1B78002B65
:100670001AD1124B1B78002B16D1114B1A68D30FCD
:100680009B185B100F4A1268981A0F490968884234
:100690000BDCD31899420BDCD0231B06802292017D
:1006A0009A618022D2029A6110BDFFF793FFFBE7A7
:1006B000FFF746FFF8E7C046E6E80020E5E800203F
:1006C000D8300020280F0020D0300020F0B5D646CA
:1006D0004F464646C0B50EF033FA07F005FF002836
:1006E00061D10021080007F0C5FEFFF78DFEFFF77E
:1006F000B3FEFFF70BFF10E0002F02D05346002B94
:100700002CD000282DD0002D2BD0D0231B068022EA
:1007100092019A618022D2029A61D02109064C6826
:10072000A40D01231E002640B24635004868400D46
:100730001F00074038004A6852091E001640B046A4
:10074000B1464A681209190011408C460A0023423A
:10075000D2D0002FD0D1FFF73DFFDEE7FFF7F0FE4C
:10076000DBE74346002B01D1002A13D16346002B5F
:1007700002D14B46002B10D1002A02D04B46002B51
:100780000ED1D0231B06802292019A618022D202D0
:100790009A61C2E7FFF7D4FEBFE7FFF71BFFBCE794
:1007A000FFF762FFB9E707480EF0BEF9012100200C
:1007B00007F060FE01204042E0BCBA46B146A846C0
:1007C000F0BDC0466068011010B5064B8B4202D1E7
:1007D00005F02EFE10BD044B044A182104480CF00D
:1007E0009FFAC046400F002074680110BC690110D8
:1007F00094680110F8B50400204B994212D10123EE
:100800000B7205F03FFE0500431C11D11C4B18680C
:1008100059681C4B9860D96023685B6919492000AE
:100820009847F8BD184B194A1D2119480CF078FA61
:1008300002F058F906000F1E10DBFA229200002386
:10084000280000210DF090FF36184F41002F0BDBE0
:10085000002F0DDB0B4B9E60DF60DDE70D4B0E4A7A
:100860003F210E480CF05CFA012676420C4FEFE770
:10087000084B094A3F2109480CF052FA2C0F00207E
:1008800040780110400F0020F4680110D469011075
:100890009468011024690110A469011040690110D5
:1008A000FFFFFF7F10B50400094B1B78002B08D019
:1008B000084901230B722368DB6920009847012057
:1008C00010BD02F065FD024B01221A70F0E7C04630
:1008D000E4E800202C0F002010B5040003689B6999
:1008E0000349984723681B6A02492000984710BDB6
:1008F000400F00202C0F00200020704770470000A0
:1009000010B502F0EFF8002906DB0BD0FA229200B6
:1009100000230DF0D1FB10BD054B064A3F210648D0
:100920000CF0FEF9FA2189000DF088FBF3E7C046D0
:1009300024690110A469011040690110083000E029
:1009400018000368002B03D08B42F9D1002002E08D
:1009500001600B6001207047083000E01800036858
:10096000002B05D08B42F9D10B680360012000E019
:1009700000207047043000E018000368002B03D00B
:100980008B42F9D1002002E001600B60012070472A
:10099000043000E018000368002B05D08B42F9D129
:1009A0000B680360012000E000207047F8B50600E6
:1009B0008068002833D002F095F8002906DB040097
:1009C0000D0008239C46B44400220CE0154B164A47
:1009D0003F2116480CF0A4F9154B164A422116483F
:1009E0000CF09EF99C4663461B68002B12D0200039
:1009F00029009E68DF68801BB9410029F2DB3400C2
:100A00003D000E490A684968724079400A43E3D0C4
:100A10006246E7E7002A03D0106803681360F8BD58
:100A20001000FCE7246901107C6A01104069011084
:100A3000E8690110946A01100C6A011040780110F5
:100A4000F0B583B0104B5C681B6800930194836819
:100A500004E0DC689B68009301940B00002B0CD031
:100A60001968009C019D9E68DF68A41BBD41002D94
:100A7000EFDCF2D1002CECD1EFE7009B019C03618D
:100A8000446103B0F0BDC0464078011070B5060067
:100A90000D0002E04B68280098472800FFF786FF0A
:100AA000011EF7D16C6800E02468002C09D0237A7D
:100AB000002BF9D000232372210028006368984797
:100AC000F2E72800FFF7BCFF2B696C6933607460A4
:100AD000300070BD034B1B6802201840431E984134
:100AE000C0B2704700C0064010B5104A104B121833
:100AF0004B419900900F0843990F504059400D4ABF
:100B00000D4B0DF031FE03004A01C00E1043CA0E1A
:100B100058405140094A0A4B0DF026FE03004A0096
:100B2000C00F1043CA0F5840514010BD157C4A7F7A
:100B3000B979379EB9E5E41C6D4758BFEB11311305
:100B4000BB49D094F0B5C64600B584B002000B0096
:100B500013498C461BE0614601C900908C46002178
:100B60000191910E9F010F43960100980199801900
:100B7000794102900391110C1D040D431404029855
:100B8000039900196941801A994102000B00054937
:100B90008C45E0D91000190004B080BCB846F0BD07
:100BA000001C0420FF1F0420F0B5CE46474680B548
:100BB00083B0804603684468009301940300806812
:100BC000D96801E001F08EFF009C019D23002B43BA
:100BD00002D103000B43F5D0009C019DA60FAB0092
:100BE0003343A2002E002500AD185E416B0E9946DE
:100BF000F3019C464B46624613431F00730EEA0105
:100C000013431E005B0F9C46FB0064462343F20027
:100C100092197B41009C019D60406940260A2F0685
:100C20003E432D0A009C24062C43444035004D4091
:100C3000070C0E043E4307047C4075404646346072
:100C400075604C01C50E2C434001C90E0843B460C9
:100C5000F0601000190003B0C0BCB946B046F0BD4A
:100C6000F0B5DE4657464E464546E0B583B00190A6
:100C7000574B9B69DB0410D5564BDA6BE0231340CE
:100C8000402B0AD0EFF305839846019B002B0AD036
:100C900000239946002400258AE04F4B4F4A8121CA
:100CA0004F480CF03DF84F4B4C4A86214C480CF015
:100CB00037F84D4B1868596801F0B6FDEFF3108610
:100CC00072B64A4B1B68002BFBD0BFF35F8F464BBD
:100CD00019685A688A4516D0BFF35F8F434B0022CC
:100CE0001A6086F310885B46002B5ED13E4B1A6873
:100CF00092465F684346002BDBD03B4B186859682F
:100D000001F0FCFEDAE7BA42E6D120002900001922
:100D100069412F4BDA690123134003431C000D0086
:100D200001F0E0FE02000B1E23DB0A200021121856
:100D30004B41002B23DB002B25DB2B490A604B604A
:100D400001994B1E4B452DD1294A20235B42CB18DC
:100D50001FD4116899400B00126801998A40224300
:100D60002B4314001D00224B1C605D6001239B4639
:100D7000B2E7204B204A3F2120480BF0D1FF01224F
:100D800052421F4BD7E71B4B1B4A3F211B480BF01E
:100D9000C7FF202301981B1A1168D940536883406C
:100DA0000B43D9E701239B4696E701239C46E14488
:100DB000019B994502D200239B4697E7200029001A
:100DC00003B0F0BCBB46B246A946A046F0BDC04643
:100DD0000000064000800040C46A0110086C011049
:100DE0008C6B0110CC720110701A0020300100D001
:100DF0000019002024690110F06B011040690110F6
:100E0000FFFFFF7F10B588B03B4C20686168FFF79B
:100E100099FE20606160FFF767FE049B5840059BC8
:100E2000019359400490059102A800F011F902982D
:100E30000399FFF759FE069B01935840079B0193C6
:100E40005940069007914020FFF70AFFFFF74CFE3C
:100E5000049B5840059B019359400490059101F073
:100E600041FEFFF741FE069B01935840079B01930B
:100E7000594006900791EFF3108472B61F4B1B6820
:100E8000002BFBD0BFF35F8F1D4B1B78002B24D1B1
:100E9000032B09D85A1CD2001A498C466244526866
:100EA0001F2A03D00133F3E701235B425A1C1DD0F4
:100EB000DBB2154A13700133DB00124A94466344D7
:100EC00005225A6004A8FFF76FFE102204A90F48FC
:100ED0000DF0D2FC0A4B01221A70BFF35F8F074B53
:100EE00000221A6084F3108808B010BD084B094A2C
:100EF000E92109480BF014FFE8180020300100D068
:100F0000EFE8002000000340DFE80020F018002098
:100F1000E46B0110286C01108C6B011070B586B069
:100F20003E4B1B78002B00D16EE010223C4902A8FA
:100F30000DF0A2FC3B4B1C78E4B201F0D3FDFFF7AF
:100F4000D3FD029B5840039B0193594002900391AB
:100F50000120FFF785FEFFF7C7FD049B0193584072
:100F6000059B01935940049005912F4B1A78531C0F
:100F7000DB002E4958582E4B984248D00021FFF7ED
:100F8000B3FD029B5840039B01935940029003918B
:100F9000EFF3108672B6274B1B68002BFBD0BFF314
:100FA0005F8F204B1B78DBB2A34213D01C4B0299FE
:100FB0001A685140039A0192586842400291039284
:100FC0009A68DB68049901914A40059901914B4068
:100FD0000492059302A8FFF7E7FD05000C0010221C
:100FE00002A90F480DF048FC0E4A13780133DBB21A
:100FF0001370BFF35F8F0F4B00221A6086F31088C7
:101000002800210006B070BDFFF7FCFE8DE701321D
:10101000D2000B000021D150B0E7C046EFE800201D
:10102000F0180020E0E80020DFE800200000034086
:10103000FFFFFF00300100D010B5FFF76FFF10BDBC
:1010400010B5024800F03CF810BDC0466CE5002029
:1010500010B5082201490DF00FFC10BD6CE5002011
:1010600010B5002901D000230AE0114B114A1F31AD
:1010700011480BF055FE00240DE03732C254013305
:101080004A1E9A420FD90F2B0DD85A080B4CA25C5E
:10109000DC07F0D40424224114000F222240092A44
:1010A000EBDC3032EAE7C0180023037010BDC04605
:1010B000386C0110A46C0110406C01106CE500202C
:1010C00070B588B0040004AD002604960922002102
:1010D00005A80DF0CBFB00960922002101A80DF018
:1010E000C5FB4B232B700D226946280015F018FB19
:1010F000002304E05A1D69468A5CE2540133072B41
:10110000F8DD08B070BD0000EFF3108072B6034B3D
:101110001B68002BFBD0BFF35F8F70472C0100D002
:10112000BFF35F8F024B00221A6080F31088704774
:101130002C0100D0F8B506000C001500FFF7E4FF05
:10114000E308F718F15C07222240012393400B4289
:1011500005D1DBB20B433B70FFF7E2FFF8BD210086
:1011600028000BF077FEF0B583B006000191140063
:101170001F00FFF7C9FF00E00134BC420CD8E308B0
:10118000F518F35C0721214001228A401A42F3D16D
:10119000D2B21A432A7001E001246442FFF7C0FF73
:1011A000002C02DB200003B0F0BD019B002BF9D026
:1011B00008980BF04FFE000070B505000C00FFF71B
:1011C000A3FFE308EE18EA5C07210C400123A340CB
:1011D000134204D09A433270FFF7A2FF70BD034B55
:1011E000034A2C3103480BF09BFDC046746E01107E
:1011F000F46E0110946E0110002307E0054A9A185E
:101200009200BFF35F8F0021116001331F2BF5D9CE
:101210007047C04640000034054A1078431CDBB2DA
:101220001370172B02D9130010221A707047C04692
:10123000580F002000B583B00100044B00931F231A
:1012400018220348FFF78FFF03B000BD046F0110A1
:10125000C021002010B5010018231B88142210881B
:10126000984710BD10B5010018231B88162210885E
:10127000984710BDF0B5C64600B507000E00002522
:101280000123984600E00135B5420AD2AC003C1972
:101290002068FFF7DFFF20600028F4D10023984684
:1012A000F1E7404680BCB846F0BD0000F8B5DE4628
:1012B00057464E464546E0B505000F0092460A9A4D
:1012C000934250D31A0E91461E020A9A0023300010
:1012D00049460CF0F1FE80466C006419A400304BC6
:1012E0009C4664446368834200D260602B1FDBB27B
:1012F0009B46012B3DD9C0239B0123438022120131
:101300001A60AB00274A9958002907D050690CF0A1
:1013100095FE431C5800C0180338FDD253465A01AD
:1013200023685A40E0231A4080235B0123431A605C
:101330005A46012A28D980239B0123438022120187
:101340001A604346636042460023300049460CF071
:10135000B3FEAD00134B58510120F0BCBB46B24662
:10136000A946A046F8BD104B104A332110480BF097
:10137000D7FC012FBFD1C0239B01234303221A6056
:10138000A368DB07FCD5C9E72168794003220A403E
:101390001A60A2680123BB401342FAD0CBE7C046D3
:1013A00000800040C4210020206F0110946F0110C4
:1013B000346F011030B583B00C2001F063FFFFF7EC
:1013C00089FB00280DD0002304E099002D4A2E4807
:1013D00088500133092BF8D92A4B2C4A5A6203B0A2
:1013E00030BD2B4B00229A6701F0BEFF294B012232
:1013F0001A60274B5B6C012BFBD1274B03221A6031
:10140000234B9B6B012BFBD1013300930433234A05
:101410000121234801F0A6FE05230093214A012162
:10142000214801F09FFE214B00930022022104205D
:10143000FFF73CFF1E4D00952B00002201210520E7
:10144000FFF734FF104C00942300002200210720F6
:10145000FFF72CFF00942300002200210820FFF753
:1014600025FF0A4B00932300002200210920FFF7EB
:101470001DFF00952B00002200210620FFF716FF1C
:10148000ADE7C046C4210020006CDC021BB70000A1
:10149000008000403CB0004030B00040002F685950
:1014A00000800240008C864700C00240001BB7004D
:1014B000405973078000014BC0587047C421002079
:1014C00010B58300084A944663441C684022624079
:1014D000C02414408022520113431C60C000034BFF
:1014E0009C466044416010BD04C001400040014082
:1014F00080000B4B9C46604400290DD00823002A35
:101500000CD004221343026853400C221340802263
:1015100052011043036070470023F0E70022F1E717
:1015200004C00140002909D08000094B9C4660445A
:1015300080239B0118430223036070478000044B03
:101540009C466044C0239B01184302230360F4E7D8
:1015500004C0014070B50400D0231B061D68AA001A
:101560000C4BD358002B0AD0002803D0AD00094BF8
:10157000EC5070BD08490D2000F0D8FAF6E70028BD
:10158000F7D0AD00034BE850002203490D2000F0D6
:10159000B3F9EEE7A8210020B116001070B5D023F2
:1015A0001B061B689D00094C2C59204207D19B004B
:1015B0002043064C18510D2000F09EF970BD044BDD
:1015C000044ACC2104480BF0ABFBC0465CE500208C
:1015D000A46F01107C700110D06F011010B50400D1
:1015E000D0231B061B689B000A4A9B5818420BD04D
:1015F0000D2000F09BFAD0231B061B6805499B00B9
:101600005A58A2435A5010BD034B044AD6210448ED
:101610000BF086FB5CE500202C7001105870011067
:10162000D06F0110072303409B00C00899403C3055
:101630008000014BC150704700400140F8B50700E1
:101640000C0016001D00FFF7EDFFFB089B00ED18D6
:101650000720384080008440002E04D080239B0166
:101660001D432C60F8BDC0239B011D432C60F9E78E
:1016700010B5D0231B061B68002B03D0024BFFF7CD
:10168000DDFF10BD014BFAE7304101400041014050
:1016900070B514001D00FFF7EBFF2800FFF75AFF9D
:1016A000002C00D170BD01210D2000F0D1F8F9E728
:1016B000F0B5D6464F464646C0B5D0231B061F6838
:1016C000BA001D4BD3589846002F03D01B4B9946A8
:1016D000002623E01A4B9946FAE724090135002C2D
:1016E0001BD033000833AB4217D90F231A00224016
:1016F00092462342F1D0BB00124A9A580123AB40D4
:101700001342EAD151462800FFF78CFF4346002BD5
:10171000E3D051462800C047DFE708361D2E06D823
:10172000F30808339B004A469C583500D7E7E0BCD5
:10173000BA46B146A846F0BDA8210020304101407C
:10174000004101405CE5002010B501238340D02218
:101750001206936293610521FFF7B2FE10BD0000EF
:10176000074B9B68103080001950BFF35F8FBFF3A9
:101770005F8F044B0021196082F310887047C046C8
:1017800000ED00E0240100D01F23181A704700006C
:1017900010B5091A081F0A4B9C466144094A914238
:1017A00008D8C30706D440104005400D064B184327
:1017B00080B210BD054B064AA32106480BF0B0FAD3
:1017C000FC070000FE0F000000E0FFFFB0700110FA
:1017D0003C730110E070011010B5091A04394C086F
:1017E000090B08D14905490D064A11430180064BF2
:1017F0002343438010BD054B054AAB2105480BF040
:101800008FFAC04600F0FFFF00F8FFFF3C710110A7
:1018100010730110E070011001238340034A106827
:101820001840431E9841C0B27047C04600E100E036
:10183000002904D0034B1860034B18607047034B1A
:101840001860FBE780E200E000E100E080E100E0FA
:1018500010B5012383401800FFF7EAFF10BD000018
:1018600001238340014A13607047C04600E200E054
:10187000024B9B6810308000C058704700ED00E0BC
:1018800010B5FFF7F5FF002805D0054BC01A2F282B
:1018900003D8012010BD0020FCE70020FAE7C04675
:1018A0005C0F002070B504000D00EFF3108672B6D7
:1018B0000C4B1B68002BFBD0BFF35F8F2000FFF7A2
:1018C000D7FF094B984201D0A84205D13200290028
:1018D0002000FFF745FF70BD044B054A86210548EF
:1018E0000BF01EFA240100D0CD0100104C71011044
:1018F00070730110E0700110F0B5DE4657464E4699
:101900004546E0B589B0814601911500EFF3108A94
:1019100072B6744B1B68002BFBD0BFF35F8F724B0A
:101920000027DF57002F40DB7C00E419A4006F483C
:1019300024180622A2566C4B1A706D4B9A684B46BF
:1019400010339B00D35898461E001B1A2F2B38D9F2
:10195000684B98452FD105AE674B33807B009B4683
:10196000D8198000614B9846404402306349FFF724
:101970000FFF7080624BB380FF23B371F571019B41
:1019800007935F44BF0047440ECE0EC701231C439C
:10199000A046524641464846FFF7E2FE09B0F0BC79
:1019A000BB46B246A946A046F0BD564B564AD72183
:1019B00056480BF0B5F9564B534ADE2153480BF00D
:1019C000AFF9C04340440C210CF038FB002912D180
:1019D00001239E43B34633000026DA79AA4211D987
:1019E0000621595600290CDB4A00521892001E00AD
:1019F0003E4B9B18F1E7474B434AEA2143480BF023
:101A00008FF91E00002E3AD005AB434A1A80813A66
:101A10005A800623F3560293002B17DA3F4805AB92
:101A20009B469880029A9A71DD71019A0792301D47
:101A30002100FFF7ADFEB080B7717B00DB199B0082
:101A40002A4FFF185B4607CB07C7A2E77800C019EB
:101A50008000264BC0180430321DB388D90A1C29D7
:101A600007D15B055915023149005118FFF790FE67
:101A7000D5E72B4B2B4AB12124480BF051F905AE89
:101A80001D4B33807B000293D8198000174A904683
:101A9000020042440392901C1849FFF779FE7080BF
:101AA000039A101D5946FFF773FEB0801E4B5A462D
:101AB0004146521A524153431B0DB371F571019ABD
:101AC0000792029B9C466744BF0047440ECE0EC758
:101AD000114B5A461380813B538001231C43A0467F
:101AE00057E7C046240100D0E8E800205C0F002042
:101AF00000ED00E0CD01001000A1FFFF8C0F0020E1
:101B000001BDFFFF8471011058730110E0700110D6
:101B1000AC710110D47101100148000001BD00003A
:101B20004872011048730110AAAA0000F0B5CE4611
:101B3000474680B583B006000D00EFF3108872B6FB
:101B4000564B1B68002BFBD0BFF35F8F544B9A683A
:101B500034001034A300D758524B9F4207D0AF42F5
:101B600000D198E00197504BFB1A2F2B09D9424620
:101B700039003000FFF7F4FD03B0C0BCB946B046F1
:101B8000F0BD3000FFF748FE814600213000FFF72E
:101B90005FFEBFF35F8FEFF30581002901D08C4218
:101BA00011D10123019C9C430022A368AB4212D0B7
:101BB0000622A256002A0DDB53009B189B00220030
:101BC000394CE418F1E73621384B394AFF313948AE
:101BD0000BF0A6F82200AB4256D106256557002D22
:101BE00038DB6B005B199A002F4B9B189A68A26038
:101BF000DA79E27106229A56A2719B795BB2002BC8
:101C00000FDA2D48A0806B005B199B00264AD31881
:101C10002A4A11789971157049463000FFF718FE6D
:101C2000A5E7201D6B005B199B001F4A9B181A1D1E
:101C30009B88D90A1C2907D15B055B150233590023
:101C40005118FFF7A5FDDDE71D4B1E4AB1211948CC
:101C50000BF066F8002912D1002A0ED0FF239371F1
:101C6000194B9380154A1378A371184B0E49641AC7
:101C7000644163431B0D1370CEE70A4FF2E7201D4A
:101C80001349FFF7A9FDC7E76A21124B084AFF3144
:101C900008480BF045F8034F69E7C046240100D01F
:101CA00000ED00E0CD0100105C0F0020607201101B
:101CB00028730110E070011001BD0000E8E8002069
:101CC000487201104873011001BDFFFFAAAA00006D
:101CD000960F00209472011010B5032304009C435A
:101CE000064A9446644422681840C000FC3383408E
:101CF0009A43130081400B43236010BD00E400E0D1
:101D000070B5012101432E4BCB1A2F2B28D8EFF3AE
:101D10000583002B2BD0EFF3108C72B6294A126882
:101D2000002AFBD0BFF35F8F274A0400244D641BB9
:101D300064416243120D54B2244A92689B00D25807
:101D40008A421BD00022032A32D853009B189B00E2
:101D50001B49CB189B795BB2A3421FD00132F2E73B
:101D6000C7211B4B1B4A49001B480AF0D9FF92218F
:101D70001A4B184AFF3118480AF0D2FF134A9268EA
:101D80001749D150174B1A7882711C70BFF35F8FBF
:101D90000C4B00221A608CF3108870BD0D005300AC
:101DA000991889006918FF268E710F4A8A80E9E721
:101DB000D1210E4B074A490007480AF0B1FFC0463F
:101DC0005C0F0020240100D0AAAA000000ED00E072
:101DD0009C720110F4720110E0700110C4720110C5
:101DE000CD010010E8E8002001BDFFFFD072011016
:101DF0000022044B02E0044902C30132072AFAD947
:101E00007047C04600E400E08080808010B5FFF796
:101E1000BBFC01000148FFF7CFF910BDF7E8002037
:101E200000B583B00100064B00930523002205484E
:101E3000FFF799F9002801DB1F23181A03B000BD32
:101E4000D8720110F7E8002070B504000E001500EC
:101E5000FFF7E2F90100200000F006F8A680E58017
:101E6000BFF35F8F70BD0000024B9C466144890048
:101E7000016070474000003410B50400FFF7CCF952
:101E800001002000FFF7F0FFFF232371BFF35F8FF6
:101E900010BD10B50400FFF7BFF901002000FFF7E7
:101EA000E3FFFF23237100236371BFF35F8F10BD36
:101EB000034B9C46614489000160BFF35F8F70470C
:101EC0004000003410B504000120FFF7B3F9010011
:101ED0002000FFF7EDFF10BD70B505000C000800F5
:101EE00000F000FF0949200000F040FEFFF794F9E0
:101EF000074B9C466044800068602C75D0231B060D
:101F00001B786B75A400034BE55070BD1D220010BB
:101F10004000003490D500200A4B1A68EFF310817E
:101F200072B61368002BFCD0BFF35F8F054B1B68A4
:101F3000BFF35F8F00221A6081F3108840BF00203A
:101F40000021704778E7002010B5002922D00368EF
:101F50001B7B99421ED8174B9C466144090183683C
:101F60009C4661440C684968002A19D003681B7BB1
:101F70009A4215D883680F488446624412019A1821
:101F800010685368020001208B4201D80ED0002057
:101F9000C0B210BD084B094A3C2109480AF0C0FEF6
:101FA000054B064A3C2106480AF0BAFEA242EFD889
:101FB000EDE7C046FFFFFF0F2C750110AC77011055
:101FC000D874011010B500291ED0037B99421BD88C
:101FD0004B005B18033B0468A4466344002919D0F6
:101FE000002A1DD0914221D0002A25D0047BA24294
:101FF00022D804685000801803382018817019789E
:1020000000291FD11A7010BD104B114A68211148C8
:102010000AF086FE104B114A6F310E480AF080FE1E
:102020000F4B0E4A70210B480AF07AFE0D4B0B4AFB
:10203000712108480AF074FE044B054A68210548DE
:102040000AF06EFE41701A70DDE7C046507501104F
:10205000187801106C750110D4750110F477011017
:10206000E0750110EC75011070B506000D0014004C
:10207000002914D0002A14D080687368984700287B
:1020800006D0220029003000FFF79CFF280007E05F
:102090002A0021003000FFF795FF200000E010002B
:1020A00070BD0800FCE70000F0B583B005000092A9
:1020B00001930AAB1C780BAB1F78002C26D0036869
:1020C0005A7B944207D10123002B19D1002C3BD11C
:1020D000200003B0F0BD002C0CD01A7B944209D82C
:1020E0001A6863001B19033BD3189B78002BEBD0B5
:1020F0000123E9E73E4B3F4A68213F480AF010FEC2
:102100003E4B3F4A67213F480AF00AFE03689C7B2A
:10211000002CDBD012D01A7B94420FD86200121927
:10212000033A19688C46624451789973002900D1AA
:10213000D9730023937053701370C7E72C4B2D4A4B
:1021400068212D480AF0ECFD002C3AD02B681B7B4F
:102150009C4236D82C4BE3181B01AA689446634472
:10216000009A1A60019A5A60089A9A60099ADA608D
:102170002E68002C2BD030D0337B9C422DD86300AE
:102180001B19033B32689446634400229A705A70CC
:102190001A70717B22003000FFF766FF7073844273
:1021A00000D095E7287D009A019B00F027FD061ED0
:1021B00001D0002F17D00C9B002B00D188E71E7098
:1021C00086E7124B124A3C210E480AF0A9FD114B3A
:1021D000114AA52108480AF0A3FD054B054A6821CC
:1021E00005480AF09DFD2868210000F03FFFE2E766
:1021F00050750110187801106C75011004760110EB
:1022000024780110D8740110FFFFFF0F2C75011006
:10221000AC770110D474011008780110F0B5DE46D7
:1022200057464E464546E0B58BB0099000230893CB
:102230008200B54BD658370052E0B44BB44A3F2128
:10224000B4480AF06DFDB44BB44A3C21B4480AF0DE
:1022500067FD002901D1002869D10021404600F026
:10226000FBFEA04219D12A686B6806920793AB68FF
:102270009846EB689A464346002B14D0002C18D0A1
:102280003B681B7B9C4214D8631EFA68D35C08939E
:102290001B0218433861002015E0A24BA24A8E2190
:1022A0009F480AF03DFDA14B9F4A92219C480AF0AD
:1022B00037FD994B9E4A412199480AF031FD002390
:1022C0009A46984600207B68BFF35F8F00221A6011
:1022D00086F310884346002B32D1002800D10CE150
:1022E00000F000FC02000B1EA7DB0020002106907E
:1022F00007917868EFF3108672B601680029FCD068
:10230000BFF35F8F396888464C7B002CD7D09AD0BA
:10231000097B8C4297D8874965182D01B9688C468E
:10232000654428686968801A9941002991DD2A6806
:102330006B68099800F062FC00239A469846C2E751
:10234000089B1B022343994651461800C0470500CD
:102350000E007A68EFF3108B72B6136859424B4146
:10236000D9B2002BF9D1BFF35F8F002E1EDB002EF8
:1023700046DD3B69002B47D04B456DD100F0B2FBE9
:1023800002000B1E6EDB52197341002B70DB002B19
:1023900072DB0021049101310391029451460191B5
:1023A000414600913800FFF77FFE4CE03B69002B6F
:1023B000DDD04B4514D1069A079B521BB341002B2D
:1023C00014DB002B16DB00210491013103910294F0
:1023D00051460191414600913800FFF765FE32E019
:1023E000554B514AA1214E480AF09AFC0122524213
:1023F000524BE6E7454B464A3F2146480AF090FCDF
:10240000002E01D1002DB4D13B68002C50D05A7B56
:10241000944237D1012100294AD1DA7B002A4DD1DB
:102420009A7B002A03D1DA7B002A5AD19C73DC7391
:10243000002C5CD03B681B7B9C4258D8FA68013C5E
:10244000135D0133135500233B617A68BFF35F8F3F
:1024500013608BF3108843E7374B334AA42130488D
:102460000AF05EFC294B2A4A3F212A480AF058FC10
:1024700001225242314B8AE7244B254A3F2125480D
:102480000AF04EFC002C0DD01A7B94420AD8620050
:102490001219033A1868844662449278002ABAD026
:1024A0000121B8E7264B274A682127480AF038FC63
:1024B000264B274AF62124480AF032FC002A0AD08B
:1024C000197B8A4207D851008A18033A19688C464A
:1024D00062445470A4E71A4B1A4A68211A480AF059
:1024E0001FFC1C4B1A4AFB2117480AF019FC0A4B27
:1024F0000F4A41210A480AF013FC0BB0F0BCBB465E
:10250000B246A946A046F0BD90D50020246901102E
:1025100078770110406901102C750110AC7701101B
:10252000D87401102C7601109077011044760110B8
:10253000D0770110FFFFFF0F50760110FFFFFF7FE4
:1025400050750110187801106C7501108C7601100F
:10255000E4770110B076011010B50C4B5B68002BCE
:1025600004D00A210A48FFF77FFC10BD074C230066
:10257000084A1021206800F07FFC032000F0A6FA32
:1025800003212000FFF7A8FCEBE7C046A40F0020C2
:1025900078E70020491F001010B5064B5B68002B40
:1025A00001D0044810BD044B044A5E2104480AF0DF
:1025B000B7FBC046A40F0020C4760110B877011005
:1025C000D8740110F0B5DE4657464E464546E0B594
:1025D0008BB0804616001F00149B9A46159B9946A7
:1025E00016AB1B789B461F2302AA94466344002225
:1025F0001A702BE0002809D042461268127B9042E4
:1026000004D8421E4146C9688A5C41E0404B414AB9
:10261000412141480AF084FB07984CE0361BAF414A
:10262000002F07DB002F11DA3C4B3D4A3F213D488C
:102630000AF076FB012676423B4FF3E7374B384AE8
:102640003F2138480AF06CFB002F4FDB43465A68A5
:10265000EFF3108472B6136859424B41D9B2079117
:10266000002BF8D1BFF35F8F1F3302AA9446634457
:1026700004930023039302934B4601935346009324
:1026800032003B004046FFF70FFD031EB2D10200AF
:1026900041464968BFF35F8F00250D6084F31088C1
:1026A000002B29D01F2302A98C4663441B78002BE2
:1026B000B2D112021043002B20D05B46002B1DD05C
:1026C0004946D04704000D0003000B431DD00029EC
:1026D000A4DB00F007FA06000F1EAFDB36196F41CE
:1026E000002FB1DA012676420F4FADE70B4B0C4AB3
:1026F0003F210C480AF014FB012040420BB0F0BC13
:10270000BB46B246A946A046F0BD0798F6E7C046CC
:102710002C750110D0770110D874011024690110B4
:102720007877011040690110FFFFFF7FF8B50400C2
:10273000002900D162E04268EFF3108572B6136899
:1027400058424341D8B2002BF9D1BFF35F8FCBB2CF
:102750002268567BB3421BD10120002848D0206953
:1027600088422BD0090AC9B2002B2ED02068007BEA
:1027700083422AD8581EE668305C88422BD000205D
:102780006368BFF35F8F00221A6085F31088F8BD7D
:10279000002B0DD0167BB3420AD85E00F618033E1C
:1027A0001768BC466644B678002ED6D00120D4E720
:1027B000134B144A682114480AF0B2FA2C21134B27
:1027C000134AFF3113480AF0ABFA134B134A412165
:1027D00010480AF0A5FA1900100000F047FC002884
:1027E000CED199210E4B0A4A49000A480AF098FABC
:1027F00023698B42C4D100232361C1E70020C6E7CF
:1028000050750110187801106C750110E8760110F0
:1028100060770110D87401102C750110D077011069
:102820000C770110407D7047F0B587B006000F00AF
:10283000EFF30583002B1FD106246442E517A4198A
:102840007D418D4202D803D1844201D90024002564
:10285000002D14DB0494059500F044F902000B1ED2
:1028600013DBA41A9D41002D17DC14D03000390071
:1028700000F044F907B0F0BD23480AF0EBFA234B0F
:10288000234A3F2123480AF04BFA204B204A3F219C
:1028900020480AF045FA002CE8D0FFF77DFE00231F
:1028A000029301931C4B0093049A059BFFF78AFE49
:1028B000002818DADAE7002300E00023002BD5D146
:1028C000164B1A68EFF3108172B61368002BFCD018
:1028D000BFF35F8F114B1B68BFF35F8F00221A603D
:1028E00081F3108820BF0499059A0D4B5B6A9A42C8
:1028F000E3D80B48806A884203D29A42DBD0012396
:10290000DCE70123DAE7C0461077011024690110E3
:102910007877011040690110191F001078E7002036
:102920000040054070B504000D0000F0DBF8020027
:102930000B1E0ADB200029008018594100290ADB00
:1029400000290CDBFFF770FF70BD084B084A3F21E0
:1029500008480AF0E5F9012040420749F0E7034B37
:10296000034A3F2103480AF0DBF9C04624690110FD
:102970007877011040690110FFFFFF7F10B5FA2240
:102980009200002300210BF0EFFEFFF7CBFF10BDFC
:1029900070B584B005000C00EFF30583002B1ED149
:1029A000FFF7FAFD002302930193224B00932A00C4
:1029B0002300FFF707FE061E23DD20BFFFF7ECFD17
:1029C0003100FFF7B3FE1C4B5B6A9C422DD81A4ABC
:1029D000926AAA422CD29C4225D0012026E0164BB6
:1029E0005B6A994209D8144A926A824207D2994294
:1029F00001D001201AE0002018E0002016E001209C
:102A000014E00D4B5B6A9C4209D80B4A926AAA42B9
:102A100007D29C4201D0012008E0002006E00020FF
:102A200004E0012002E0002000E0002004B070BDBE
:102A30000120FBE7191F00100040054070B5EFF3BF
:102A400005801038EFF3108C72B61A4B1B68002B00
:102A5000FBD0BFF35F8F01221300834016494B6305
:102A600016490B60164909780C00C440224214D064
:102A7000114A546A8200134D5259944206D382007F
:102A8000114C125999430E4B197007E00A4A031D65
:102A90009B0099589950002200E00022BFF35F8FFD
:102AA000044B002119608CF31088002A00D0904755
:102AB00070BDC046280100D0004005403C70054074
:102AC000F4E80020ACE70020181F002010B501003A
:102AD000024A0348FEF72EFB10BDC046487801109D
:102AE000E1E80020044B5B6A034A906A1900536ACC
:102AF0009942F9D17047C04600400540084B5B6AD7
:102B000001E0074B5B6A8B42FBD301E0044B5B6A3D
:102B10008B4203D1024B9B6A8342F7D37047C04676
:102B20000040054070B504000D00FFF7DBFF020018
:102B30000B0020002900801859418B4202D804D193
:102B4000824202D901204042C117002902DBFFF76F
:102B5000D5FF70BD024B034A3F2103480AF0E0F85D
:102B6000246901100C7901104069011070B504004E
:102B70000D00EFF3108672B61B4B1B68002BFBD0C9
:102B8000BFF35F8F002D1CD02000FEF771FE174BA6
:102B900083420BD019002000FEF784FE01212000A3
:102BA000FEF756FE0123A340114A1360A400114B07
:102BB000E550BFF35F8F0C4B00221A6086F310883C
:102BC00070BDA2000B4B0021D1500122A2400A4946
:102BD0000B7893430B7005492000FEF7A7FF0021F7
:102BE0002000FEF735FEE4E7280100D03D2A001062
:102BF00038600540181F0020F4E80020F0B5DE46DC
:102C000000B584B00400150001921E000293FFF786
:102C100069FF03958E4202D84ED185424CD9EFF31D
:102C2000108B72B6274B1B68002BFBD0BFF35F8F56
:102C3000254A17780125A540EBB23B431370234B7F
:102C40005D63221D92000199D150A2002049029893
:102C500050501B6A2B4212D11C4B1B6C2B4208D0CC
:102C60000020BFF35F8F174B00221A608BF3108890
:102C700023E0184B184AC52118480AF051F8FFF70D
:102C800031FF8E4214D802D1039B834210D80E4BE1
:102C90001B78BB420ED00D4B1D625D631F200440AC
:102CA0000123A3400E4A1360074B1F701E38D8E75C
:102CB0000020D6E70120D4E7012004B080BCBB4649
:102CC000F0BDC046280100D0F4E8002000400540D7
:102CD000ACE700206C780110F078011090780110BA
:102CE00080E200E0EFF3108C72B60B4B1B68002BF8
:102CF000FBD0BFF35F8F01238340084A136208496A
:102D00000A789A430A70BFF35F8F034B00221A6060
:102D10008CF310887047C046280100D00040054061
:102D2000F4E8002010B500291ED0037B99421BD87F
:102D30004B005B18033B0468A4466344002919D088
:102D4000002A1DD0914221D0002A25D0047BA24226
:102D500022D8046850008018033820188170197830
:102D600000291FD11A7010BD104B114A682111485B
:102D700009F0D6FF104B114A6F310E4809F0D0FF11
:102D80000F4B0E4A70210B4809F0CAFF0D4B0B4A3E
:102D90007121084809F0C4FF044B054A6821054821
:102DA00009F0BEFF41701A70DDE7C0465075011092
:102DB0002C7A01106C750110D4750110187A01106D
:102DC000E0750110EC75011070B506000D001400DF
:102DD000002914D0002A14D080687368984700280E
:102DE00006D0220029003000FFF79CFF280007E0F2
:102DF0002A0021003000FFF795FF200000E01000BE
:102E000070BD0800FCE7000010B5002343730133D8
:102E10008373037BC3730123027B9A4214D9002B73
:102E20000CD0027B934209D85A00D218033A0168A9
:102E30008C4662440133DBB25370EDE70B4B0C4A16
:102E400068210C4809F06CFF002A09D0924207D88B
:102E5000016853009A18033A8A180023537010BD72
:102E6000024B034A6821034809F05AFF50750110CC
:102E70002C7A01106C75011010B5017342608360EB
:102E8000FFF7C2FF10BD000070B50400081E00D19E
:102E900070BD002934D0237B994231D84B005B1898
:102EA000033B2268944663445A78002AF0D02DD020
:102EB000237B9A422AD853009B18033B21688C46F7
:102EC00063445D7800215970002825D0237B984207
:102ED00022D843001B18033B21688C466344002121
:102EE000597001002000FFF76FFF06002900200045
:102EF000FFF7CAFF020031002000FFF765FFC7E7B8
:102F0000084B094A6821094809F00AFF054B064A9F
:102F10006821064809F004FF024B034A6821034870
:102F200009F0FEFE507501102C7A01106C7501102D
:102F300070B505000C00160000292FD034D0037B9B
:102F4000994231D84B005B18033B026894466344B6
:102F50005A78002A2ED19A78002A31D11978FFF7B1
:102F600093FF0300002E0AD0EA7B002A2ED1AA7B11
:102F7000002A03D1EA7B002A3BD1AC73EC73002B0F
:102F80003DD1002C4FD02B7B9C424CD82B6861004C
:102F90000C19033C1C190023637070BD254B264A95
:102FA0003821264809F0BCFE254B264A68212648D0
:102FB00009F0B6FE254B204A3A21204809F0B0FE20
:102FC000234B1D4A3B211D4809F0AAFE002A0AD0C6
:102FD000297B8A4207D851008A18033A29688C460F
:102FE00062445470C3E7164B164A6821164809F02C
:102FF00097FE184B104A4221104809F091FE002B11
:103000000BD02A7B934208D843001B18033B2A6845
:103010009446634400229A70B3E7094B094A682139
:10302000094809F07DFE064B064A6821064809F06A
:1030300077FEC04624790110047A01102C79011022
:10304000507501102C7A01106C75011080790110F7
:10305000A8790110B076011070B504000A00457B14
:103060002900FFF765FF6073280070BD70B504008C
:10307000002967D0437B8B420ED0002911D0037BFF
:1030800099420ED84B005B18033B0268D018837836
:10309000002B0CD1002056E00121FFF7DDFF0120BD
:1030A00051E0294B294A6821294809F039FE002BB3
:1030B00020D0227B93421DD85A00D318033B2268AC
:1030C000D2182568EB5C8B421AD0002B1BD0227BD8
:1030D000934218D85A00D318033B2268D218537869
:1030E0008B4216D0002BF0D11A4B1B4A6B211B4888
:1030F00009F016FE144B154A6821154809F010FE18
:103100004378137007E0104B104A6821104809F00B
:1031100007FE437853700023837043700122200020
:10312000FFF706FF0200617B814205D02000FFF718
:103130004BFE6073012006E0094B074A71210748E6
:1031400009F0EEFD002070BD507501102C7A0110C1
:103150006C750110D0720110EC7901102C790110FE
:10316000CC790110F0B5C64600B504000E0017007A
:103170001D0037480AF062FF8046364BFA18364B7E
:103180009A4239D8010038000AF058FF0200103A7C
:1031900098235B009A4235D86B1E062B38D8069BC5
:1031A000013B062B34D83F09474537D32D04069BF6
:1031B0001A0315432368002B36DB284B9C4244D06E
:1031C00080225201264B1A60264B1A60264B9B68C0
:1031D00011009943FAD12660A060231DC0229201FC
:1031E0001A43212313602368002BFCDAE5600823CF
:1031F000136080BCB846F0BD1C4B1D4A11211D4810
:1032000009F08EFD1C4B1A4A19211A4809F088FD55
:103210001A4B174A1C21174809F082FD184B144A13
:103220002321144809F07CFD22683F231340B34258
:10323000C3D1A3681B051B0D8342BED1E368EE22F8
:10324000D2021340AB42B8D1D3E780229201B9E752
:10325000001BB70080E84BD380F8A93200C00240C1
:1032600000E0004000F0004000C00040387A01104B
:10327000787B0110987A0110F47A0110107B01100C
:103280005C7B011080239B000343014AD36270479B
:1032900000800540024B1A68024B5A607047C046D6
:1032A0006C3B00200080054010B50200164B8020CA
:1032B000C0051860154B1648186000290AD0154B38
:1032C000E021C9041960002A09D1124B802212069C
:1032D0001A6010BD0C4BE021C9041960F3E75301DB
:1032E0009B1A9800801800010B4B186080235B0428
:1032F000984202D3084B094A1A60FFF7CBFF054BEF
:103300008022D2051A60E4E700B0054008200140A1
:10331000FCFF010000A005406C3B0020FFFFFF0008
:1033200010B5030010000C4A8024E4051460002B43
:103330000DD001221343094A094CD461094C5C4069
:103340001462516293620021FFF7AEFF10BD034B80
:103350000022DA61F7E7C04600B005400080054072
:10336000D3C007B02D3FF84F064BAA2212011A60B6
:103370002F22DA60044B054A1A60024B5B68002B6F
:10338000FBDA7047004002400060024000B0FA00E3
:1033900010B501F095FA00F09BFB00F073FD00F012
:1033A00013FE03F0B3F801F001FB00F018FA03F08C
:1033B0002DF810BD0302000A184380B270470306BF
:1033C0000202FF2109040A401343020AFF210902F5
:1033D0000A401343000E18437047000000280AD02B
:1033E000C07A002809D1431C9B00054A9B58002B3A
:1033F00004D0012002E0002000E000207047C04619
:10340000802C002010B5FDF717FE80B2002301E0EC
:103410000133DBB2032B0FD81A01D218120107496E
:103420008A18927A022AF3D11A01D21812018A1844
:1034300012898242ECD1E6E710BDC046882C0020FC
:10344000F0B5D6464F464646C0B50600884600242D
:1034500001E00134E4B2032C23D8250063001B19DA
:103460009B00314A9F58002FF3D063001B199B002B
:10347000D3181B7AB342ECD130018019000110300F
:103480002A4BC0189246630099461B199B0053446F
:103490005A684146B8474D44AD0000235246AB50F0
:1034A000D7E7002301E00133DBB2032B1BD8B34283
:1034B000F9D01A01D21812011C498A18927A022AEC
:1034C000F1D11A01D21812018A18D07B3201921957
:1034D00012018A18D27B9042E5D133019B191B015E
:1034E000CB180422DA7333019B191B010F4AD3183E
:1034F000DB7B032B04D9E0BCBA46B146A846F0BD3D
:103500000B4C9B00185903F0F7F9084A3001831956
:103510001B01D318DB7B9B0000211951801900018E
:1035200010180423C373E6E7502C0020882C0020D9
:10353000402C0020F0B5D6464F464646C0B584B074
:103540008046030143441B01534AD318DB7A012B05
:1035500034D89B00514A9B58002B32D0040144447C
:10356000240110344C4BE418200012F033FFA02249
:10357000123081B29200362000F0D6FE814600283B
:1035800000D185E001AD0C22002128000BF06EF97E
:1035900043461B0143441B013F4AD3181889FFF7D8
:1035A00009FF28800123AB70FF33AB800C22290078
:1035B000484601F0D1F8661E0C2737E0384809F07C
:1035C00049FC0021FFF73CFF434618014044070136
:1035D000314BDF190023BB720024200004B0E0BC93
:1035E000BA46B146A846F0BD0134E4B2013633789C
:1035F0002E2B01D0002BF7D1731B9BB29A463B199F
:10360000284A934216DC22003900484601F028F986
:103610007B1C9BB252462900484601F0E9F83C1950
:10362000A5B26F1CBFB23378002B09D0013635002C
:103630000024DCE7484600F039FE06246442CCE76B
:1036400000223900484601F00BF90235ABB2802266
:10365000520069460A804A80FC3A484601F0C8F8A0
:103660000D4943461B0142469A1812018A18D07B25
:10367000D37A9B00094AD21880000B494058352361
:10368000494603F0B1F80400484600F00FFEA4E7F5
:1036900001246442A1E7C046882C0020802C002031
:1036A000847B0110FEFF0000402C002070B5040058
:1036B000000100190001414BC018032C20D8230140
:1036C0001B191B013D4AD3189B7A022B34D01AD800
:1036D000002B14D0012B00D06CE0FFF793FE37498C
:1036E000220113191B01CB181881022098720020A7
:1036F000D87201251D7358732000FFF71BFF70BDA2
:103700002F4809F0A7FB032B54D123011B191B01E0
:103710002A4A9B58002B07D0013B220112191201A3
:1037200026495350002BEAD12001041924012348D3
:1037300004190023A372E2E723011B191B011F4A8E
:10374000D218137B013BDBB21373002BD7D12301BB
:103750001B191B01194AD218537B0133DBB2537377
:10376000042B09D022011219120114498A1813736B
:103770002000FFF7DFFEC2E7FFF730FE00280DD084
:103780000E49220113191B01CB18D87A0130D872C7
:10379000012018731A0000235373E9E70021200069
:1037A000FFF74EFE200104192401044B1C190023CD
:1037B000A372A4E7034809F04DFBC046882C002003
:1037C0009C7B0110B87B011010B5002404E02000A0
:1037D000FFF76CFF0134E4B2032CF8D910BD704739
:1037E000012800D97047002904D080000A68044BE2
:1037F000C250F7E78000034B1A68014BC250F1E753
:10380000802C00206C95011010B5FFF7DDFF10BD76
:1038100030B583B06B460022DA8001231D000540DD
:10382000184206D0002904DD02786B46DA710139AE
:103830000130032213000340104209D0012903DDA7
:1038400003880239023003E0002301E00839200038
:1038500007290CDD0268D218934200D90132040016
:10386000083443689B189A42F0D90133EEE71A0CEA
:103870001B041B0CD31803E002889B18023902308A
:103880000129F9DC002902DD01786A4691716A4656
:1038900006321288D318180C1B041B0CC318180C02
:1038A0001B041B0CC018002D05D003061B0C020ABC
:1038B000FF201040184380B203B030BDF0B583B094
:1038C0000600019115001C00002700E03668002E5C
:1038D00015D071897068FFF79BFF0019040C000474
:1038E000000C24187389DB07F0D57B425F41FFB2DF
:1038F0002206120C230AFF241C401443E6E7002F83
:1039000005D02206120C230AFF241C4014436B46E8
:103910009888FFF74FFD24182800FFF74BFD20186B
:10392000030C0004000C1818030C0004000C1818F9
:10393000C04380B203B0F0BD70B51C6825042D0CE7
:10394000230C5B19049C246825042D0CED18230C12
:103950005B191C0C1B041B0CE3181C0C1B041B0C1C
:10396000E318FFF7ABFF70BD10B582B0049C009464
:10397000FFF7E2FF02B010BD10B5FFF749FFC043EB
:1039800080B210BD014B1B6818187047A0D50020ED
:10399000024B1B68C01A80B27047C046A0D50020F9
:1039A000F8B50400FFF7F4FF050027883800FFF79B
:1039B000E9FF060064882000FFF7E4FFFA231B01FB
:1039C0009F420FD89C420FD8AC4202D00388AB4232
:1039D0000CD1094B1B68B3420AD07388AB4209D1A2
:1039E000012000E00020F8BD0020FCE70020FAE7FD
:1039F0000120F8E70020F6E7A4D5002070B5040008
:103A00002C4B1B68834242D82B4B1D68854241D901
:103A10000379002B41D10088FA231B0198423FD83B
:103A2000FFF7B0FF844216D00379002B13D18542F3
:103A300011D0224B1B68834235D003882380008835
:103A4000FA231B01984206D0FFF79CFF05002000D7
:103A5000FFF79EFF68806088FFF794FF05008442AF
:103A600014D00379002B11D1144B1B68A3421DD035
:103A700023882B802088FA231B01984206D0FFF769
:103A800081FF04002800FFF783FF608070BD0C48B1
:103A900009F0E0F90B4809F0DDF90B4809F0DAF913
:103AA0000A4809F0D7F9054B1C60C6E7034B1860BC
:103AB000DEE7C046A0D50020A4D50020683B00204A
:103AC000D87B0110F07B01100C7C0110287C0110C8
:103AD00070B50C4C033403239C430B4B1C60FA253C
:103AE0002D0125800023638023712800FFF74AFF02
:103AF000064B18600123037105804580044B1C6050
:103B000070BDC046A8D50020A0D50020A4D50020B7
:103B1000683B002070B5041E23D0830722D1050026
:103B2000083D164B1B68AB421FD803000C33144AE8
:103B30001268934219D80300083B1B79002B17D059
:103B40002800FFF72DFF002815D0083C0023237123
:103B50000C4B1B68AB4201D90A4B1D602800FFF7D4
:103B60004DFF70BD084809F075F9084809F072F971
:103B7000074809F06FF9074809F06CF9A0D5002053
:103B8000A4D50020683B0020547C0110787C0110F3
:103B9000947C0110BC7C0110F0B5C64600B5050050
:103BA000CC1CA4B203239C430B2C05D9FA231B0184
:103BB0009C4202D900253FE00C248C4200D277E0E1
:103BC0003C4B1B68AB423BD83B4B1B68AB4237D9E5
:103BD0002F00083F3800FFF7DBFE06003F883B1A46
:103BE0009BB2083B9BB298469C422CD824D038000C
:103BF000FFF7C8FE0379002B31D1FA231B019F4246
:103C000024D00788A419A4B20834A4B22B4B1B6893
:103C100083421ED02000FFF7B5FE0023037107800A
:103C200046802B00083B1C800088FA231B01984229
:103C300002D0FFF7A7FE4480280080BCB846F0BD44
:103C40001F4809F007F91F4809F004F91E4809F058
:103C500001F92000FFF796FE184B1860DAE7230001
:103C600014334345E8D8A419A4B20834A4B2FA2303
:103C70001B019F4219D02000FFF784FE0F4B1B68E9
:103C8000834201D90D4B1860002303712B00083BC0
:103C90001A88028046801C800088FA231B01984203
:103CA000CAD0FFF76FFE4480C6E7074809F0D2F894
:103CB0000025C1E7A0D50020A4D50020683B002046
:103CC000F07C0110087D0110287D0110F0B5CE4672
:103CD00000B582B0002800D182E0C51CADB203223D
:103CE00095430B2D05D9FA231B019D4202D90020D3
:103CF00072E00C25854200D274E03B4B1B6899466C
:103D00001800FFF745FE070032E0384809F0A2F836
:103D100001230371A14510D0019BE5180835344BF0
:103D20001B689D421DD8A3071ED12000083053E018
:103D30004B461888FFF726FE81464B461B79002B21
:103D400003D02B4A12684A45F2D1274A49461160EE
:103D5000274A12684A45DFD0002BDDD0254809F0FC
:103D600079F8254809F076F8244809F073F827888F
:103D70003E000195FA231B015B1B9F422BD23800AA
:103D8000FFF700FE04000379002BF0D103889E1B8F
:103D9000083E019B9E42EAD314339E42B8D37E195B
:103DA000B6B20836B6B2FA231B019E42ADD030003F
:103DB000FFF7E8FD002303712388038047802680F6
:103DC000012323710088FA231B019842A2D0FFF738
:103DD000D9FD46809EE7002002B080BCB946F0BD08
:103DE0000020F9E70020F7E7683B0020287D01105C
:103DF000A4D500203C7D0110587D0110887D011064
:103E000010B50400FCF778FDE3681C68002C0AD0AC
:103E100022681A60A30703D1FCF770FD200010BDD3
:103E2000024809F017F8FCF769FDF7E7B87D0110C3
:103E300070B505000C008B0709D1FCF75DFDEB6840
:103E40001B682360EB681C60FCF758FD70BD0148DF
:103E500009F000F8DC7D0110C36800221A60836855
:103E6000033303329343002207E0C16809681960F5
:103E7000C1680B6081885B180132C1889142F4DC13
:103E80007047000010B5002406E0A200044BD05893
:103E9000FFF7E2FF0134A4B2082CF6D910BDC046EA
:103EA0002C7F011010B5082805D88000044BC0589D
:103EB000FFF7A6FF10BD03480AF036FE0020F9E721
:103EC0002C7F0110FC7D011010B5082807D80029AF
:103ED00004D08000044BC058FFF7AAFF10BD034870
:103EE0000AF022FEFAE7C0462C7F01101C7E01106A
:103EF0000B688268934206D0002902D083600120BB
:103F000070470023FAE70020FAE70B68C268934283
:103F100006D0002902D0C360012070470023FAE7D1
:103F20000020FAE770B504000D0000F015FF29002D
:103F3000200002F011FD2900200000F0A5FC70BD5A
:103F400010B500280DD03923C25C343B1340052B3B
:103F500006D1CB0704D54368002B01D0130703D447
:103F600010BD034808F076FF011D03F0EFFEF7E7F0
:103F7000507F011030B583B005000C0010000029FF
:103F800008D0002A09D06B680A689A4208D100203C
:103F900003B030BD0B4808F05DFF0A4808F05AFF37
:103FA0000192036001A9FFF7BDFF23686B60012147
:103FB0002800FFF7C5FFEB69002B01D028009847C8
:103FC0000120E5E7747F011070470000F0B5C64698
:103FD00000B582B005000C0017001E00002920D09B
:103FE000002F20D0002E20D0002C02D02368002BE0
:103FF0001DD101AA21002800FFF7BCFF012398462C
:10400000002239002800FFF773FF0022310028004A
:10401000FFF77BFF4346002B0CD002B080BCB846B4
:10402000F0BD074CDCE7064FDCE7054EDCE700237C
:104030009846E5E701AA21002800FFF79BFFECE77F
:104040006C950110014B18607047C04670D5002078
:1040500010B5041E0FD03923C35CDA070AD501223C
:104060009343383283541B0709D4E369002B01D0F2
:104070002000984710BD03480AF056FDFAE703F008
:1040800047FEF2E7847F011010B5041E28D0436874
:10409000002B12D13923E35CDB0713D4114B1B68CF
:1040A000A34213D0104B1B68A34213D0002B17D090
:1040B0001A68A24212D01300F8E704300021FFF77B
:1040C00031FFE7E72000FFF7C3FFE7E70020FFF736
:1040D000B9FFE7E72268044B1A6001E022681A6022
:1040E00010BDC04670D5002074D5002010B5041E48
:1040F00004D03923C35C5A0704D510BD09480AF01F
:1041000013FDFAE7042213433922835403F046FBDC
:1041100003212000FFF714FF236A002BEDD02000BD
:104120009847EAE7A47F011010B500280CD0392386
:10413000C35C5A0707D50422934335328354036A7C
:10414000002B00D0984710BD01480AF0EDFCFAE7BB
:10415000C87F0110021E0BD0064B1868002808D03B
:104160003C23C35C0133DBB2934202D00068F5E725
:104170000020704774D5002030B504AC25780024A9
:10418000046041600281438103AB1B780373457374
:1041900001238373C47330BD02E0C91A89B2006879
:1041A000002802D043898B42F7D9002A00D0118021
:1041B0007047000010B5FCF79FFB034B01221A70FB
:1041C000FCF79CFB10BDC046EDE8002070B5002850
:1041D0001AD080235B02994221D2002921D08CB2CF
:1041E00003891B199BB2A3421DD30C254557002DF3
:1041F0000DDB002A19D04268511A41604289141916
:104200004481038100200BE0094808F023FE426846
:10421000511A020010328A42EFD9012000E0012039
:1042200070BD0020FCE70120FAE70120F8E7C04656
:104230002C91011010B5FCF75FFB084B00221A709F
:10424000FCF75CFB064B186800E0C068002804D04F
:10425000436F002BF9D000F053FC10BDEDE80020B7
:10426000BCE70020F0B583B007000E001500412A1E
:1042700001D0012A0FD10720FFF714FE041E07D03A
:10428000002301930095330032003900FFF774FFDB
:10429000200003B0F0BD014808F0DCFDEC7F011008
:1042A00010B50022FFF792FF10BD000070B5051E8B
:1042B00001D000260CE0194808F0CCFD184808F0A1
:1042C000C9FD29000820FFF7FFFD0136F6B22500E1
:1042D000002D21D0FCF710FBAC7B002CEED0013C74
:1042E000E4B2AC73FCF70AFB002C15D12C682A7BD6
:1042F0000F231340022BE4D0012B05D0002B08D153
:104300002800FFF707FCE0E729000720FFF7DCFDA6
:10431000DBE7044808F09EFD300070BD2C910110D1
:104320000080011018800110F0B5D6464F46464671
:10433000C0B582B005000F00904684B2C1235B0077
:104340009A4241D011D8012A02D0412A00D07DE002
:10435000424639000020FFF785FF8146484602B0FB
:10436000E0BCBA46B146A846F0BDA0239B009A42E5
:104370006CD1E31C03218B439BB2FA1C94B28C4397
:104380001B199BB21800103080B28A43934260D34D
:10439000824261D8FFF79AFC81460028DED02900CE
:1043A0001031494403310324A143002301934346C0
:1043B00000933B003A00FFF7DFFE4B465B68234269
:1043C000CCD0274808F046FD00250023994626E07A
:1043D000FFF7F0FE4B46002B02D04846FFF766FF82
:1043E000A946BBE7B6B22100103169180331032496
:1043F000A143002301934346009333003A00280071
:10440000FFF7BAFE6B6823421BD14B46002B1BD033
:1044100053461D60BF1BBFB20024002F9ED0AA468A
:104420000820FFF73FFD051ED2D0E31C0322934373
:104430009AB20C4B9B1A9BB21E1CBB42D2D93E1C9B
:10444000D0E7094808F006FDA946E3E7074808F069
:1044500001FD0023994681E7002399467EE7C04687
:1044600090800110EC0500002C800110BC80011030
:1044700070B5041E12D00089884220D90D006389CE
:10448000AB420ED2ED1AADB223890A1A9B182381D2
:104490002468002CF3D1134808F0DCFC124808F023
:1044A000D9FC227B120701D1AB4209D1658125815C
:1044B0002068002801D0FFF7F9FE0023236070BDBB
:1044C0006368191B691889B22000FFF765FB002893
:1044D00004D08442EAD0054808F0BCFC044808F047
:1044E000B9FCC046F0800110D88001102481011071
:1044F000088101100300002002E0013080B21B6837
:10450000002BFAD17047000010B5041E09D0FCF74B
:10451000F3F9A37B0133A373FCF7F0F9A37B002B22
:1045200000D010BD014808F095FCC0464081011044
:1045300010B5002801D0002908D10C480AF0F4FA7F
:104540000FE003890C891B19038110000268002AFF
:10455000F7D103894289934204D10A899B180381C8
:10456000016010BD024808F075FCC046548101107E
:104570008C81011010B50C00FFF7DAFF2000FFF767
:10458000C3FF10BDF8B5CE46474680B506000D1EE8
:10459000914698460AD00A894A4507D300280BD08D
:1045A00002894B449A4207DB002726E03D480AF087
:1045B000BBFA1020404270E03B480AF0B5FA1020E8
:1045C00040426AE0394808F045FC394808F042FCAE
:1045D0004B46002B36D10027424539D0002D03D061
:1045E0006A892B899A4245D0002E03D0728933897B
:1045F0009A4248D04B46002B4ED0738942469B1AB4
:104600006A89D21B934200D313004C46994500D9C6
:104610001C00706840446B68D91922000AF02CF91C
:10462000A0443F194B461C1BA3B2994672894245D0
:10463000C8D36B89BB42C8D3CED82D68002DC7D054
:104640000027C9E71B480AF06FFA1020404224E017
:104650003668002E02D000239846BFE74B46002B59
:1046600002D100239846B9E713480AF05DFA1020FA
:10467000404212E02B68002BB6D010480AF054FAE2
:104680000620404209E03368002BB3D00B480AF003
:104690004BFA0620404200E00020C0BCB946B046BC
:1046A000F8BDC046BC810110F081011020820110CC
:1046B000388201105482011064820110748201104A
:1046C000F8B5CE46474680B50500884691461900A4
:1046D000002805D04346002B0BD00027002625E0FC
:1046E00019480AF021FA00273800C0BCB946B04684
:1046F000F8BD16480AF018FA0027F5E76C89641A25
:10470000A4B2A14500D24C46434698196B689C461A
:10471000614422000AF0B0F8E719BFB23619B6B208
:104720004B461C1BA3B2994600212D684B46002B1B
:10473000DAD0002DD8D00029E0D06B898B42DDD8AB
:10474000C91A89B2F1E7C046AC820110CC820110CF
:1047500010B5FFF721FD10BDF8B5CE46474680B530
:104760000500884616009146002806D000290AD088
:10477000038993420DD300271DE018480AF0D4F9AD
:104780001020404223E016480AF0CEF910204042A3
:104790001DE014480AF0C8F90120404217E0124811
:1047A00008F058FB4346D919220068680AF064F8FB
:1047B000361B3F192D68002E06D0002DEFD06C89D6
:1047C000B442EFD33400EDE74F4504D10020C0BC24
:1047D000B946B046F8BD054808F03CFBF082011030
:1047E0000883011024830110448301105C830110AD
:1047F000F0B583B00F00140019006B469A1DFFF747
:10480000A7FF061E24D002896B46D88803199A4256
:1048100021DB7389984212D21A1A944212DD95B2A2
:1048200073689C4660442A0039000AF025F8621B30
:1048300092B27919002A07D1002003B0F0BD0748D1
:1048400008F008FB2500EBE73068FFF785FFF4E789
:1048500001204042F1E701204042EEE7748301105D
:1048600010B582B014006B469A1DFFF771FF002847
:1048700007D042896B4606331B889A4201D94268A9
:10488000D45402B010BD000010B5002814D0036845
:10489000002B11D000290FD00B68002B0CD0074B38
:1048A0001B6800E0DB68002B06D01A680468A2428F
:1048B000F8D10A681A60F5E710BDC04664E500202B
:1048C0007047000010B5002903D1064808F0C2FA6D
:1048D000C068002805D0C36F8B42F9D10023C3679D
:1048E000F6E710BD8C83011070B5051E04D0037D62
:1048F000012B04D101240DE0084808F0ABFA084868
:1049000008F0A8FAA200074BD35818682900FFF74F
:10491000D9FF0134032CF5D970BDC046B483011012
:10492000C08301104888011010B50100037D012BE0
:1049300003D00320FFF7C8FA10BD014808F08AFA37
:10494000D883011070B5041E09D0037D042B19D043
:10495000072B1ED0032B05D00025280070BD124860
:1049600008F078FA01F0C2F9051E01D1052323757C
:10497000002D15D06B1CF0D1638B08221343638389
:104980000025EAE701F0B2F9051EF1D105232375F0
:10499000EEE701F0ABF9051EEAD109232375E7E73D
:1049A000200001F079FAD8E7B483011010B5FCF7C4
:1049B00043FB8004800C034B9C466044024B1880F0
:1049C00010BDC04600C0FFFFCC0F002010B5010095
:1049D000037D012B03D00220FFF776FA10BD0148BA
:1049E00008F038FAF4830110F8B5002816D0456AAB
:1049F000068DA919C26A448E231C0E4FBC4200D9F1
:104A00003B1C9BB2D318CB1A0BD5521B0CD4802362
:104A10005B029A420BD242850020F8BD064808F09E
:104A200019FA4685881AF8E700234385F4E7034816
:104A300008F010FAD0160000088401102C84011030
:104A400010B5041E13D0037D012B14D0038D59180B
:104A500089B20F4A914201D88B420FD90C4B238562
:104A60002000FFF7C1FF0B4B984209D810BD0A4840
:104A70000AF05AF8FAE7094808F0ECF90185EFE77F
:104A8000638B022213436383200001F005FAEDE7F4
:104A9000A02D0000670B0000488401106084011005
:104AA00010B5041E08D04068002801D0FFF7FEFBB7
:104AB00021000420FFF708FA10BD10B503E00468D8
:104AC000FFF7EEFF20000028F9D110BD10B5002A35
:104AD0000ED000290BD00B8E002B08D0282B0AD922
:104AE000283B9BB21A1C834200D9021C90B210BD15
:104AF000024808F0AFF90023F4E7C04688840110AB
:104B000010B50400406F002803D0FFF7D6FF002344
:104B1000636710BD10B5041E22D0037D002B1ED08C
:104B20000A2B1CD0012B1AD0806F002803D0FFF76E
:104B3000BDFB0023A367636F002B02D02000FFF7AB
:104B4000DFFF01235B422386E06EFFF7B6FF206F95
:104B5000FFF7B3FF0023E36623676822A35210BD6B
:104B6000014809F0E1FFFAE7B084011010B50C1E0E
:104B70000BD000280CD003688B420CD0002B0FD038
:104B8000DA68A2420AD01300F8E71C4808F062F97C
:104B90001B4808F05FF9DB68036001E0E268DA6057
:104BA0000023E3602000FFF7B5FF237D0A2B04D02C
:104BB000012B02D0638BDA070FD4237D012B08D0A1
:104BC000E36E002B10D1236F002B10D1636F002BED
:104BD00010D100232375E38210BD022213436383A7
:104BE000200001F059F9E8E7064808F033F90648D3
:104BF00008F030F9054808F02DF9C046CC840110C2
:104C0000E884011008850110208501103C85011001
:104C1000F0B5D6464F464646C0B584B004000D00F8
:104C200000281CD0037D012B1DD00A2B1ED0026D45
:104C30009046426A9146902286580769002B47D1D8
:104C4000C38A9A46002B4DD02E4B1B68834215D049
:104C5000002B19D0DA68A24214D01300F8E72A48D2
:104C600009F062FF2EE0294808F0F4F80100284816
:104C7000FFF77CFF2000FFF7A9FE23E0DA68214B55
:104C80001A6001E0E268DA600023E3609A460025DA
:104C9000206F002801D0FFF710FFE06E002801D040
:104CA000FFF70BFF606F002801D0FFF706FF002D14
:104CB0001AD12000FFF78AFE002E03D00D214942B1
:104CC0003800B04704B0E0BCBA46B146A846F0BDD3
:104CD000C38A9A4601000F48FFF748FF0E4B012296
:104CE0001A70D5E70025D3E7231D228B0292524686
:104CF0000192009323004A464146200001F080F8CB
:104D0000D7E7C046C0E70020548501107085011028
:104D1000D0E70020BCE70020F1E8002010B5012119
:104D2000FFF776FF10BD000070B504000800002CEE
:104D300006D1084808F08EF8C568FFF7EFFF280095
:104D4000002805D0036822689342F5D0C068F7E7D1
:104D500070BDC046A485011070B504000D00002888
:104D600002D00368002B00D170BD0D4B1968FFF70E
:104D7000DBFF0C4B19682000FFF7D6FF002DF3D0A6
:104D80002B68002BF0D0084B1B6800E0DB68002B81
:104D9000EAD01A6821688A42F8D12A681A60F5E7D1
:104DA000BCE70020C0E70020C8E7002010B584B0B1
:104DB000041E13D0002904D0037D042B11D0072B2F
:104DC0000FD0237D012B00D166E0022B00D16FE0D4
:104DD000002B46D02000FFF7B5FD3DE03A4808F033
:104DE00039F8A36F002B1CD0638BDB061ED5231D67
:104DF000228B0292E28A019200932300626A216D63
:104E0000200000F0FDFF2000FFF784FE2F4B1B6801
:104E1000A3420ED0002B12D0DA68A2420DD01300AC
:104E2000F8E7228D2A4B9A42DED1CAE7294808F0DA
:104E300011F8DA68254B1A6001E0E268DA600023B5
:104E4000E360254B01221A70244B1B68A34205D056
:104E50002000FFF7BBFD002004B010BD00F032FBC6
:104E6000F9E7E38A002B12D01D4B1B68A34206D042
:104E7000002B0AD0DA68A24205D01300F8E7DA68FE
:104E8000174B1A6001E0E268DA600023E36020005B
:104E9000FFF79CFD0020DFE72000FFF725FD210044
:104EA0001048FFF763FE2000FFF73EFD0020D3E728
:104EB00021000648FFF75AFE074B01221A70200016
:104EC000FFF784FD0020C7E7D8850110BCE700206C
:104ED000A02D0000F8850110F1E80020C4E70020B3
:104EE000C0E70020C8E7002010B500280AD0037DE5
:104EF000012B03D0438B1022134343830121FFF77F
:104F000055FF10BD024809F00FFE10204042F8E79F
:104F10001486011010B508001400002909D0002AD9
:104F20000DD01189FFF78CFD2000FFF7BFF900209D
:104F300010BD064809F0F8FD10204042F8E7002BAC
:104F400001D00020F4E7FFF7CFFFF1E72C86011036
:104F5000F8B5041E25D0866F777B002383678433E2
:104F6000C558002D23D00023320001000069A84756
:104F70000500002D23D1BB0627D5238D144A93426B
:104F800001D0013323858423E658002E1DD02069EB
:104F9000002300222100B04703000D3315D1050086
:104FA00013E00C4809F0C0FD10256D420DE0002310
:104FB000320001000020FFF7ADFF0500D9E72B000C
:104FC0000D3302D0A66705256D422800F8BDC04606
:104FD000A02D00004886011070B51C4A13780133DB
:104FE00013701B4B1C6813E00222134363832000E1
:104FF00000F052FF638B03229343638313E0082284
:10500000934363832000FFF79DFC0FE0E5682C00CD
:10501000002C19D0A27F0D4B1B789A42F6D0A377B3
:10502000638BDA07E0D4638B1A07E8D4E568A36FD3
:10503000002BECD0074E002333702000FFF788FFD1
:105040003378002BE3D0CCE770BDC046F3E80020F6
:10505000BCE70020F1E80020F0B5CE46474680B519
:1050600085B0BA4A136801331360B94A1378013323
:105070001370B84B1C68002686E1B74807F0EAFEBB
:10508000B64807F0E7FEB64807F0E4FE2600E468FD
:105090007AE14033E35C052B00D88BE101256FE01A
:1050A000B04807F0D7FEB04807F0D4FE200000F06B
:1050B00093FC00280CD0A0230022E2540133E35CCF
:1050C000062B00D9A3E00133A132A354002557E0F9
:1050D000200000F0E1FE0028EDD1002550E0238EF5
:1050E000A24A934201D8013323863023E25E402353
:1050F000E35E9A4244DB200000F02CFE002805D03D
:10510000236F002B3CD1E36E002B39D0237D022B83
:1051100015D04223E25C131C0C2A00D90C23DAB20E
:105120003C21635EDB103E20215E5B1890498A5C67
:1051300093408E4A934220DC1BB24022A3520023AC
:1051400023866033E25A183BE15A131C8A4200D985
:105150000B1C9BB25B084A22A352618E4A0092B29A
:10516000934201D24A23E2524823E15222330022E1
:10517000E252200001F02CF802E07E4BDDE7012531
:10518000217D062945D0637A082217001F401A4264
:1051900004D0042949D0072947D00027636F002B8A
:1051A0000AD06A4B1A68236AD21A4023E15E4B0088
:1051B0005B185B009A426AD2237D032B6BD0092BCC
:1051C00072D0002D79D1E568237F0133DBB22377DC
:1051D000627F934200D2D5E000232377664A1370A2
:1051E0008C33E358002B00D1A7E0210020699847B9
:1051F000614B1B78002B00D03BE7002800D19EE0DC
:1052000026002C00C0E00125BAE70025B8E70025FC
:10521000B6E7638BDB06B6D54C4B1B68226A9B1A3C
:10522000282BB0D90135EDB2ADE7484B1F68236A92
:10523000FF1A9423E35898469C23E058043BE35814
:10524000994658434044FA21490008F0F7FE874246
:1052500003D90135EDB20127A0E7A323E05C4B465B
:1052600058434044FA21490008F0E8FE874201D83B
:10527000002793E7200000F0BDFF002805D1A322FE
:10528000A35C0133A354002788E7002786E72000AA
:10529000FFF736FC90E72D4A1268216A521A282A35
:1052A0008DD90135EDB28AE7284B1B68226A9B1A1B
:1052B000F02B86D90135EDB283E79023E558200025
:1052C000FFF728FC002E20D0224B1B689C4219D0EF
:1052D000E368F360002F23D123699846E768200034
:1052E000FFF774FB244B00221A70002D03D00D2110
:1052F00049424046A847204B1B78002B00D0B8E617
:105300003C0041E01D4807F0A5FD124B1B689C4284
:1053100003D1104BE2681A60DCE7194807F09AFDE8
:10532000231D626A216D208B0290E08A0190009318
:105330002300200000F064FDCEE7002058E72000A5
:1053400000F0AAFD26002C001EE0C046CCE700209D
:10535000F3E80020BCE70020708601109C86011055
:10536000C8860110F486011028870110FE7F000016
:1053700038880110FF7F0000F1E8002060870110ED
:105380008C87011026002C00002C46D0237D002B9A
:1053900000D172E6012B00D172E60A2B00D172E631
:1053A000A17F394A1278914200D16FE6A277022B91
:1053B00000D16EE64223E35C0B2B00D9DFE6A1238C
:1053C000E55C002D00D18AE6236F002B00D067E654
:1053D000E36E002B00D166E6A223E35C0B2B00D921
:1053E00011E7013D294B5A5DA023E35C934202D2B1
:1053F0000133A0216354A023E35C934200D204E76D
:105400006023E15A002900D050E6200000F016FF8A
:10541000002800D14FE60025B2E61D4B1D6812E0C2
:105420001C4807F017FD2800FFF774FB002C1BD069
:10543000174B1B689D4214D0EB68E360EE682800B0
:10544000FFF7C4FA3500002D19D02B7D0A2BE7D1C8
:10545000114B1B682A6A9B1AF02BE4D82C00ED68CC
:10546000F1E70E4807F0F6FC094B1B689D4203D19B
:10547000074BEA681A60E1E7094807F0EBFC05B062
:10548000C0BCB946B046F0BDF3E800205888011012
:10549000D0E70020B8870110CCE70020E887011092
:1054A0001088011010B5FFF797FD054A13780133F6
:1054B000DBB21370DB0700D410BDFFF7CDFDFBE7B7
:1054C000F2E80020024A137810210B431370704752
:1054D000EEE8002010B5002805D043689B7B012B27
:1054E00004D1002010BD024807F0B4FC0120F9E708
:1054F0006088011010B500290AD0496808001430EE
:10550000920004231A4014328A18824203D110BD3B
:10551000024807F09FFC024807F09CFC88880110B5
:10552000B0880110F0B5D6464F464646C0B50600D5
:105530000F009046994608AB1B789A4600284BD03E
:1055400000294CD09D0004200540FEF7ABFC041E52
:1055500048D0534603730023036047603B89AAB2D7
:10556000934243D39B1A03810023438114213800C3
:10557000FEF796FE00283CD163685F682761F08AD9
:10558000FDF718FF3870000A78702769308BFDF737
:1055900011FFB870000AF87027694846FDF70FFF41
:1055A0003871030A7B71030CBB71000EF871A808F7
:1055B00005300003256943461843FDF7FBFE2873B9
:1055C000000A6873236900229A74DA742000E0BC30
:1055D000BA46B146A846F0BD0B4807F03BFC0B4865
:1055E00007F038FC3800FEF761FEEFE7084807F0E7
:1055F00031FC08498C228B5A01338B522000FFF773
:105600004FFA0024E2E7C046C4880110E488011084
:1056100008890110703B0020F0B5DE4657464E4623
:105620004546E0B583B001900D001E000CAB1B8811
:105630009B460DAB1B889A460EAB1B7899460FAB69
:105640001B8898468A1891B2A022143189B2920020
:105650002220FEF769FE071E38D042892B00133343
:1056600093423BDA44685846FDF7A4FE2070000AD6
:1056700060705046FDF79EFEA070000AE070267133
:10568000330A6371330CA371360EE6710198FDF78E
:1056900096FE2072030A6372030CA372000EE0727E
:1056A000A8080530000380B24B461843FDF782FE80
:1056B0002073000A60734046FDF77CFEA073000A69
:1056C000E073002323746374A374E374380003B09D
:1056D000F0BCBB46B246A946A046F0BD014807F063
:1056E000B9FBC0462089011010B584B0041E13D048
:1056F000408D039010200290208B0190E08A009052
:10570000606AFFF789FF002804D0638D626A9446BF
:105710006344E36204B010BD014807F09BFBC04640
:1057200050890110F0B585B00500080016000AACDC
:1057300004CC24880CA90F88002B1AD0002A1BD077
:10574000FDF73DFE03000E4A0392142202920197D8
:105750000094002200213000FFF75EFF041E05D0F8
:105760000023002201002800FFF7C4FE200005B03E
:10577000F0BD044807F06EFB034807F06BFBC04622
:105780002DA00000788901109489011010B500281F
:1057900002D0007A002803D1100002F0F7FC10BDFF
:1057A000FEF7D8FCFBE70000F0B5C64600B584B0B4
:1057B00004000D00160000280CD000290DD0002A8E
:1057C0000ED0FFF787FE00280DD0002004B080BC6B
:1057D000B846F0BD474807F03DFB474807F03AFBA5
:1057E000464807F037FB2769686AFDF7E8FD38721D
:1057F000030A7B72030CBB72000EF8722769688D76
:10580000FDF7D8FDB873000AF8736B8D6A6A944689
:105810006344EB62276914239846B844237BDB0773
:1058200040D43022AB5E002B4BDB6B6B002B4BD09C
:105830006268236951685B1A9BB25189C91A518108
:1058400061680A89D31A0B81626823695360002258
:105850001A745A742769227B92000423134014336C
:10586000FB18984542D12B1D984663681A89434618
:1058700000932B0006216068FEF776F83874000A62
:1058800078741F4978228B5A01338B52EB7A606807
:105890000296723A0192AA7A00924246290002F0D8
:1058A00095FD93E72A1D31001648FFF70FF9812374
:1058B0009B041843FDF783FD786118239846B8448C
:1058C000AFE700232B86B0E70F4B1B686B632169A2
:1058D00008794B791B0203438A7912041343C87970
:1058E00000061843FDF76BFDA863A1E7074807F022
:1058F000B1FAC046B0890110D0890110F0890110B9
:10590000703B0020B4050000CCE70020B0880110F7
:10591000F0B5CE46474680B585B006000C001700AE
:1059200098460C9B002B2AD04B6899460A8943461F
:1059300000933B0006212000FEF716F84B46187432
:10594000000A5874002E1DD0F37AB57A0F487821DA
:10595000425A013242520C9A02920622019200955A
:1059600042463900200002F031FD05002000FEF71C
:105970009DFC280005B0C0BCB946B046F0BD044847
:1059800007F068FA0025FF23E0E7C046703B0020DF
:10599000148A0110F0B583B005000C0016001F003A
:1059A00000290ED01A003100FFF7F0FE00280BD0BE
:1059B00000903B00320021002800FFF7A9FF03B050
:1059C000F0BD044807F046FA2000FEF76FFC042003
:1059D0004042F4E7488A0110F0B5DE4657464E468D
:1059E0004546E0B583B005000C00002848D0C66EDF
:1059F000002E00D1D1E0002945D033899A468B4250
:105A000000D8CDE0438E8B4240D35346002B40D08C
:105A1000337B9B469B0004210B40994653461B1B3E
:105A20009BB29846A0221900494489B292003620C0
:105A3000FEF77AFC071E00D1A8E073681B89328943
:105A40009B1A9BB21B199BB241684944424670683D
:105A5000FEF736FE40451FD0002398465649842263
:105A60008B5A01338B524346002B00D092E0002F1B
:105A700000D19DE03800FEF719FC0120404290E083
:105A80004E4807F0E7F94E4807F0E4F94D4807F0B3
:105A9000E1F94D4807F0DEF933691A7B587B0002C3
:105AA0001043FDF787FCC2B23F2303409946082309
:105AB000010019408846184203D037201040814623
:105AC00098464B46DB0707D501234A469A43914641
:105AD00042461A43D3B29846316908794B791B0282
